{
  "address": "0x5FbDB2315678afecb367f032d93F642f64180aa3",
  "abi": [
    {
      "inputs": [
        {
          "internalType": "contract IERC20",
          "name": "_quick",
          "type": "address"
        },
        {
          "internalType": "contract IERC20",
          "name": "_quickX",
          "type": "address"
        },
        {
          "internalType": "uint256",
          "name": "duration",
          "type": "uint256"
        }
      ],
      "stateMutability": "nonpayable",
      "type": "constructor"
    },
    {
      "anonymous": false,
      "inputs": [
        {
          "indexed": false,
          "internalType": "uint256",
          "name": "newWithdrawTimeout",
          "type": "uint256"
        }
      ],
      "name": "NewWithdrawTimeout",
      "type": "event"
    },
    {
      "anonymous": false,
      "inputs": [
        {
          "indexed": true,
          "internalType": "address",
          "name": "previousOwner",
          "type": "address"
        },
        {
          "indexed": true,
          "internalType": "address",
          "name": "newOwner",
          "type": "address"
        }
      ],
      "name": "OwnershipTransferred",
      "type": "event"
    },
    {
      "anonymous": false,
      "inputs": [
        {
          "indexed": false,
          "internalType": "uint256",
          "name": "quickAmount",
          "type": "uint256"
        },
        {
          "indexed": false,
          "internalType": "uint256",
          "name": "quickxAmount",
          "type": "uint256"
        },
        {
          "indexed": true,
          "internalType": "address",
          "name": "account",
          "type": "address"
        }
      ],
      "name": "QuickToQuickX",
      "type": "event"
    },
    {
      "anonymous": false,
      "inputs": [
        {
          "indexed": false,
          "internalType": "address",
          "name": "tokenAddress",
          "type": "address"
        },
        {
          "indexed": false,
          "internalType": "uint256",
          "name": "amount",
          "type": "uint256"
        }
      ],
      "name": "WithdrawTokens",
      "type": "event"
    },
    {
      "inputs": [],
      "name": "DEAD",
      "outputs": [
        {
          "internalType": "address",
          "name": "",
          "type": "address"
        }
      ],
      "stateMutability": "view",
      "type": "function"
    },
    {
      "inputs": [],
      "name": "SWAP_RATIO",
      "outputs": [
        {
          "internalType": "uint256",
          "name": "",
          "type": "uint256"
        }
      ],
      "stateMutability": "view",
      "type": "function"
    },
    {
      "inputs": [],
      "name": "owner",
      "outputs": [
        {
          "internalType": "address",
          "name": "",
          "type": "address"
        }
      ],
      "stateMutability": "view",
      "type": "function"
    },
    {
      "inputs": [],
      "name": "quick",
      "outputs": [
        {
          "internalType": "contract IERC20",
          "name": "",
          "type": "address"
        }
      ],
      "stateMutability": "view",
      "type": "function"
    },
    {
      "inputs": [
        {
          "internalType": "uint256",
          "name": "quickAmount",
          "type": "uint256"
        }
      ],
      "name": "quickToQuickX",
      "outputs": [],
      "stateMutability": "nonpayable",
      "type": "function"
    },
    {
      "inputs": [],
      "name": "quickX",
      "outputs": [
        {
          "internalType": "contract IERC20",
          "name": "",
          "type": "address"
        }
      ],
      "stateMutability": "view",
      "type": "function"
    },
    {
      "inputs": [],
      "name": "renounceOwnership",
      "outputs": [],
      "stateMutability": "nonpayable",
      "type": "function"
    },
    {
      "inputs": [
        {
          "internalType": "uint256",
          "name": "newWithdrawTimeout",
          "type": "uint256"
        }
      ],
      "name": "setWithdrawTimeout",
      "outputs": [],
      "stateMutability": "nonpayable",
      "type": "function"
    },
    {
      "inputs": [
        {
          "internalType": "address",
          "name": "newOwner",
          "type": "address"
        }
      ],
      "name": "transferOwnership",
      "outputs": [],
      "stateMutability": "nonpayable",
      "type": "function"
    },
    {
      "inputs": [],
      "name": "withdrawTimeout",
      "outputs": [
        {
          "internalType": "uint256",
          "name": "",
          "type": "uint256"
        }
      ],
      "stateMutability": "view",
      "type": "function"
    },
    {
      "inputs": [
        {
          "internalType": "address",
          "name": "tokenAddress",
          "type": "address"
        },
        {
          "internalType": "uint256",
          "name": "amount",
          "type": "uint256"
        }
      ],
      "name": "withdrawTokens",
      "outputs": [],
      "stateMutability": "nonpayable",
      "type": "function"
    }
  ],
  "transactionHash": "0x2551fc79dfaa0a4876323c9e658d622a14bf31992ac96f27fdc2305a7f19d43c",
  "args": [
    "0x831753dd7087cac61ab5644b308642cc1c33dc13",
    "0x831753dd7087cac61ab5644b308642cc1c33dc13",
    7776000
  ],
  "bytecode": "0x60c060405234801561001057600080fd5b5060405161100e38038061100e83398101604081905261002f916100cd565b61003833610061565b6001600160a01b03808416608052821660a0526100558143610109565b6001555061012f915050565b600080546001600160a01b038381166001600160a01b0319831681178455604051919092169283917f8be0079c531659141344cd1fd0a4f28419497f9722a3daafe3b4186f6b6457e09190a35050565b80516001600160a01b03811681146100c857600080fd5b919050565b6000806000606084860312156100e257600080fd5b6100eb846100b1565b92506100f9602085016100b1565b9150604084015190509250925092565b6000821982111561012a57634e487b7160e01b600052601160045260246000fd5b500190565b60805160a051610ea56101696000396000818161011b0152818161026c01526107680152600081816101c201526107060152610ea56000f3fe608060405234801561001057600080fd5b50600436106100c95760003560e01c80638da5cb5b11610081578063f2fde38b1161005b578063f2fde38b14610197578063f60d6ceb146101aa578063fdd3a879146101bd57600080fd5b80638da5cb5b146101585780639c15d1a214610176578063b7f41a171461018d57600080fd5b8063580fab68116100b2578063580fab6814610116578063715018a61461013d578063729414601461014557600080fd5b806303fd2a45146100ce57806306b091f914610101575b600080fd5b6100d761dead81565b60405173ffffffffffffffffffffffffffffffffffffffff90911681526020015b60405180910390f35b61011461010f366004610cb7565b6101e4565b005b6100d77f000000000000000000000000000000000000000000000000000000000000000081565b6101146103e2565b610114610153366004610ce1565b61046f565b60005473ffffffffffffffffffffffffffffffffffffffff166100d7565b61017f60015481565b6040519081526020016100f8565b61017f620f424081565b6101146101a5366004610cfa565b6105bc565b6101146101b8366004610ce1565b6106ec565b6100d77f000000000000000000000000000000000000000000000000000000000000000081565b60005473ffffffffffffffffffffffffffffffffffffffff16331461026a576040517f08c379a000000000000000000000000000000000000000000000000000000000815260206004820181905260248201527f4f776e61626c653a2063616c6c6572206973206e6f7420746865206f776e657260448201526064015b60405180910390fd5b7f000000000000000000000000000000000000000000000000000000000000000073ffffffffffffffffffffffffffffffffffffffff168273ffffffffffffffffffffffffffffffffffffffff16141561034f57600154431161034f576040517f08c379a000000000000000000000000000000000000000000000000000000000815260206004820152602e60248201527f546f6b656e537761703a3a7769746864726177546f6b656e733a2054494d454f60448201527f55545f4e4f545f524541434845440000000000000000000000000000000000006064820152608401610261565b61038f61037160005473ffffffffffffffffffffffffffffffffffffffff1690565b73ffffffffffffffffffffffffffffffffffffffff841690836107ce565b6040805173ffffffffffffffffffffffffffffffffffffffff84168152602081018390527f680f2e4f4032ebf1774e8cdbaddcb1b617a5a606411c8ca96257ada338d3833c910160405180910390a15050565b60005473ffffffffffffffffffffffffffffffffffffffff163314610463576040517f08c379a000000000000000000000000000000000000000000000000000000000815260206004820181905260248201527f4f776e61626c653a2063616c6c6572206973206e6f7420746865206f776e65726044820152606401610261565b61046d60006108a7565b565b60005473ffffffffffffffffffffffffffffffffffffffff1633146104f0576040517f08c379a000000000000000000000000000000000000000000000000000000000815260206004820181905260248201527f4f776e61626c653a2063616c6c6572206973206e6f7420746865206f776e65726044820152606401610261565b6001548111610581576040517f08c379a000000000000000000000000000000000000000000000000000000000815260206004820152603960248201527f546f6b656e537761703a3a736574576974686472617754696d656f75743a204e60448201527f45575f54494d454f55545f4d5553545f42455f484947484552000000000000006064820152608401610261565b60018190556040518181527f46fb5861a92d71761148c47cca23401340b7f1745d2300e75ebdc99b88c68eeb9060200160405180910390a150565b60005473ffffffffffffffffffffffffffffffffffffffff16331461063d576040517f08c379a000000000000000000000000000000000000000000000000000000000815260206004820181905260248201527f4f776e61626c653a2063616c6c6572206973206e6f7420746865206f776e65726044820152606401610261565b73ffffffffffffffffffffffffffffffffffffffff81166106e0576040517f08c379a000000000000000000000000000000000000000000000000000000000815260206004820152602660248201527f4f776e61626c653a206e6577206f776e657220697320746865207a65726f206160448201527f64647265737300000000000000000000000000000000000000000000000000006064820152608401610261565b6106e9816108a7565b50565b61073073ffffffffffffffffffffffffffffffffffffffff7f0000000000000000000000000000000000000000000000000000000000000000163361dead8461091c565b60006103e8610742620f424084610d15565b61074c9190610d79565b905061078f73ffffffffffffffffffffffffffffffffffffffff7f00000000000000000000000000000000000000000000000000000000000000001633836107ce565b604080518381526020810183905233917f58025b13996b11125b8c08b7a345ef4c2af19f140b89b66565be9bf0cf51af82910160405180910390a25050565b60405173ffffffffffffffffffffffffffffffffffffffff83166024820152604481018290526108a29084907fa9059cbb00000000000000000000000000000000000000000000000000000000906064015b604080517fffffffffffffffffffffffffffffffffffffffffffffffffffffffffffffffe08184030181529190526020810180517bffffffffffffffffffffffffffffffffffffffffffffffffffffffff167fffffffff0000000000000000000000000000000000000000000000000000000090931692909217909152610980565b505050565b6000805473ffffffffffffffffffffffffffffffffffffffff8381167fffffffffffffffffffffffff0000000000000000000000000000000000000000831681178455604051919092169283917f8be0079c531659141344cd1fd0a4f28419497f9722a3daafe3b4186f6b6457e09190a35050565b60405173ffffffffffffffffffffffffffffffffffffffff8085166024830152831660448201526064810182905261097a9085907f23b872dd0000000000000000000000000000000000000000000000000000000090608401610820565b50505050565b60006109e2826040518060400160405280602081526020017f5361666545524332303a206c6f772d6c6576656c2063616c6c206661696c65648152508573ffffffffffffffffffffffffffffffffffffffff16610a8c9092919063ffffffff16565b8051909150156108a25780806020019051810190610a009190610db4565b6108a2576040517f08c379a000000000000000000000000000000000000000000000000000000000815260206004820152602a60248201527f5361666545524332303a204552433230206f7065726174696f6e20646964206e60448201527f6f742073756363656564000000000000000000000000000000000000000000006064820152608401610261565b6060610a9b8484600085610aa5565b90505b9392505050565b606082471015610b37576040517f08c379a000000000000000000000000000000000000000000000000000000000815260206004820152602660248201527f416464726573733a20696e73756666696369656e742062616c616e636520666f60448201527f722063616c6c00000000000000000000000000000000000000000000000000006064820152608401610261565b73ffffffffffffffffffffffffffffffffffffffff85163b610bb5576040517f08c379a000000000000000000000000000000000000000000000000000000000815260206004820152601d60248201527f416464726573733a2063616c6c20746f206e6f6e2d636f6e74726163740000006044820152606401610261565b6000808673ffffffffffffffffffffffffffffffffffffffff168587604051610bde9190610e02565b60006040518083038185875af1925050503d8060008114610c1b576040519150601f19603f3d011682016040523d82523d6000602084013e610c20565b606091505b5091509150610c30828286610c3b565b979650505050505050565b60608315610c4a575081610a9e565b825115610c5a5782518084602001fd5b816040517f08c379a00000000000000000000000000000000000000000000000000000000081526004016102619190610e1e565b803573ffffffffffffffffffffffffffffffffffffffff81168114610cb257600080fd5b919050565b60008060408385031215610cca57600080fd5b610cd383610c8e565b946020939093013593505050565b600060208284031215610cf357600080fd5b5035919050565b600060208284031215610d0c57600080fd5b610a9e82610c8e565b6000817fffffffffffffffffffffffffffffffffffffffffffffffffffffffffffffffff0483118215151615610d74577f4e487b7100000000000000000000000000000000000000000000000000000000600052601160045260246000fd5b500290565b600082610daf577f4e487b7100000000000000000000000000000000000000000000000000000000600052601260045260246000fd5b500490565b600060208284031215610dc657600080fd5b81518015158114610a9e57600080fd5b60005b83811015610df1578181015183820152602001610dd9565b8381111561097a5750506000910152565b60008251610e14818460208701610dd6565b9190910192915050565b6020815260008251806020840152610e3d816040850160208701610dd6565b601f017fffffffffffffffffffffffffffffffffffffffffffffffffffffffffffffffe016919091016040019291505056fea26469706673582212200b732d03edd59a4ebe489c2a409bce239cb53ed04f2282a4bd3f2f028aa312f664736f6c634300080c0033"
}